:020000000F28C7
:10000800CE00030E8312990004089A000A089B0088
:100018004F089C001D28102883128C018D018E0129
:100028008F0190019101920193019401950183013F
:10003800E9280B1A8B1C97288B100C030D04031D41
:10004800AB28013090070318910A00309107C3309C
:100058009700CD309600960B2F28970B2F288312E8
:100068001108803ACF0080304F02031D3D28273009
:100078001002031C5E2883121108803ACF008030DA
:100088004F02031D49282D30100203185E28031063
:1000980083120618031400300318013096009701E4
:1000A80016089200170893000310120D9200130D02
:1000B8009300882883121108803ACF0080304F02BD
:1000C800031D68282D301002031C8828831211088C
:1000D800803ACF0080304F02031D74283C30100254
:1000E8000318882803108312061803140030031815
:1000F8000130960097011608940017089500031020
:10010800140D9400150D95000230831298000430E8
:100118009700BA309600960B8F28970B8F28980B6C
:100128008F280000AB288B1A0B1DAB2801308E07D7
:1001380003188F0A00308F0707300E060F04031DBF
:10014800AB288E018F0101308C0000308D008312A6
:100158001C08CF001B088A001A088400190E8300A7
:10016800CE0E4E0E090007308316810080308B00BA
:10017800E6308312810001308316860085018312E0
:100188008501860194019501920193018C018D01ED
:10019800080083128C018D010618D4288B16DA28E2
:1001A80090308B00E63081008E018F010618D02830
:1001B8000C030D0403190800D0288312940195013B
:1001C80092019301900191010800B720E120CD2010
:0601D80090308B00EC28C2
:02400E0009C0E7
:00000001FF
