:020000000F28C7
:10000800CE00030E83129C0004089D000A089E007F
:100018004F089F001728102883130C3084001830CD
:100028009B2183017F290B1A8B1C87288B100C03BB
:100038000D04031D8728013090070318910A00302A
:100048009107C3309A00CD309900990B29289A0B53
:10005800292883121108803ACF0080304F02031DEF
:10006800372802301002031C532883121108803AE3
:10007800CF0080304F02031D4328063010020318BA
:100088005328003083120618013099001908960485
:100098001608990019079A001A08960078288312FA
:1000A8001108803ACF0080304F02031D5D282D30A3
:1000B8001002031C782883121108803ACF00803080
:1000C8004F02031D69283C301002031878280030BD
:1000D8008312061801309900190897041708990027
:1000E80019079A001A089700023083129B000430FF
:1000F8009A00BA309900990B7F289A0B7F289B0B9E
:100108007F2800009E288B1A0B1D9E280B1101309A
:1001180083128E0703188F0A00308F0707300E06E8
:100128000F04031D9D288E018F0101308C000030C3
:100138008D006A2183121F08CF001E088A001D083F
:1001480084001C0E8300CE0E4E0E09008312A200FE
:1001580022083039A1002108950022080F39A10092
:100168002108940020083039A100210893002008B4
:100178000F39A10021089200CD289501D8289501B2
:10018800950AD8280230C9280A30A100210895000C
:10019800D8281508003A0319C128103A0319C328AA
:1001A800303A0319C628C8281408803A763E031C3A
:1001B800EE280A30A10021089400EE289301F928BE
:1001C8009301930AF9280230EA280A30A10021088D
:1001D8009300F9281308003A0319E228103A031982
:1001E800E428303A0319E728E9281208803A763ECD
:1001F800031C08000A30A10021089200080083129D
:1002080098002A29FC308600080060308600080023
:10021800DC3086000800F230860008006630860070
:100228000800B63086000800BE3086000800E030BE
:1002380086000800FE30860008007330860008003B
:100248008E308600080002308600080018088400F6
:100258000B3004020318272901308A009030040764
:100268008200080083128C018D01061C41290C08AC
:100278000D04031D41298B164B2990308B00E63065
:1002880081008E018F0101308C0000308D00061C2A
:1002980039290C030D04031908003929473083163E
:1002A800810080308B00E630831281000130831694
:1002B80086008312860183168501831285019701C2
:1002C80096018C018D0190308B000800013083125B
:1002D80085001508032102308312850013080321C5
:1002E8000430831285001208032108308312850028
:1002F8001408032108005221A32136213C3083121F
:1003080010061104031D82291708A3002308A00062
:100318001608AA20A3218229062909290C290F29B0
:100328001229152918291B291E2921292429640085
:100338008001840A04060319003404069C298312E8
:0A0348009701960190019101080051
:02400E0009C0E7
:00000001FF
