:020000000F28C7
:10000800CE00030E83129000040891000A089200A3
:100018004F089300C6281028831319308400253010
:100028000A228301D52983129700170830399500D1
:100038001508A20017080F3995001508A100140823
:10004800303995001508A00014080F3995001508D7
:100058009F0022089500150896003E28A2016428F2
:10006800A201A20A642802303A280A30950015082D
:10007800A20064282208003A03193228103A03190A
:100088003428303A0319372839286428A1017C28F4
:10009800A101A10A7C2802306028033060280430BE
:1000A800602805306028063060280730602808304E
:1000B8006028093060280A3095001508A1007C28BE
:1000C800210884000A30040203185F2801308A00DE
:1000D800F130040782007C28A001BA28A001A00AF8
:1000E800BA28023078280A3095001508A000BA28E6
:1000F8002008003A03197028103A03197228303A78
:10010800031975287728BA289F0108009F019F0ABC
:1001180008000230950015089F000800033095007C
:1001280015089F0008000430950015089F00080076
:100138000530950015089F00080006309500150841
:100148009F0008000730950015089F000800083038
:10015800950015089F0008000930950015089F00B4
:1001680008000A30950015089F0008001F08840041
:100178000A3004020318B52802308A000030040748
:10018800820008000B1A8B1C36298B1019031A04DD
:10019800031D362901309D0703189E0A00309E076B
:1001A800C3308E00CD308D008D0BD8288E0BD8280B
:1001B80083121E08803ACF0080304F02031DE628C4
:1001C80002301D02031C022983121E08803ACF0048
:1001D80080304F02031DF22806301D020318022941
:1001E80000308312061801308D000D08A30423087F
:1001F8008D000D078E000E08A300272983121E0804
:10020800803ACF0080304F02031D0C292D301D028B
:10021800031C272983121E08803ACF0080304F0222
:10022800031D18293C301D020318272900308312AA
:10023800061801308D000D08A40424088D000D0750
:100248008E000E08A400023083128F0004308E0046
:10025800BA308D008D0B2E298E0B2E298F0B2E294F
:1002680000004D298B1A0B1D4D290B1101308312EB
:100278009B0703189C0A00309C0707301B061C04C8
:10028800031D4C299B019C010130990000309A0004
:10029800C02183121308CF0012088A0011088400B5
:1002A800100E8300CE0E4E0E090083128C0080299A
:1002B800FC3086000800603086000800DC308600CC
:1002C8000800F23086000800663086000800B63064
:1002D80086000800BE3086000800E030860008006E
:1002E800FE30860008007330860008008E308600D5
:1002F80008000230860008000C0884000B30040255
:1003080003187D2901308A00E630040782000800BE
:10031800831299019A010618972919081A04031DCE
:1003280097298B16A12990308B00E63081009B011C
:100338009C010130990000309A0006188F29190392
:100348001A04031908008F290730831681008030AA
:100358008B00E630831281000130831686008312F9
:1003680086018316850183128501A401A3019901E1
:100378009A0190308B000800013083128500220812
:100388005921023083128500200859210430831234
:1003980085001F085921083083128500210859213A
:1003A8000800A82112228C213C3083121D061E044D
:1003B800031DD8292408980018089400230817203A
:1003C8001222D8295C295F296229652968296B29A5
:1003D8006E297129742977297A294A284C284F28A7
:0E03E800512853285528572859285B285D288E
:1004000088288A288D28922897289C28A128A62801
:10041000AB28B02864008001840A04060319003464
:1004200004060B2A8312A401A3019D019E0108006A
:02400E0009C0E7
:00000001FF
